{
  "_format": "hh-sol-artifact-1",
  "contractName": "MyNFT",
  "sourceName": "contracts/MyNFT.sol",
  "abi": [
    {
      "inputs": [],
      "stateMutability": "nonpayable",
      "type": "constructor"
    },
    {
      "inputs": [
        {
          "internalType": "address",
          "name": "sender",
          "type": "address"
        },
        {
          "internalType": "uint256",
          "name": "tokenId",
          "type": "uint256"
        },
        {
          "internalType": "address",
          "name": "owner",
          "type": "address"
        }
      ],
      "name": "ERC721IncorrectOwner",
      "type": "error"
    },
    {
      "inputs": [
        {
          "internalType": "address",
          "name": "operator",
          "type": "address"
        },
        {
          "internalType": "uint256",
          "name": "tokenId",
          "type": "uint256"
        }
      ],
      "name": "ERC721InsufficientApproval",
      "type": "error"
    },
    {
      "inputs": [
        {
          "internalType": "address",
          "name": "approver",
          "type": "address"
        }
      ],
      "name": "ERC721InvalidApprover",
      "type": "error"
    },
    {
      "inputs": [
        {
          "internalType": "address",
          "name": "operator",
          "type": "address"
        }
      ],
      "name": "ERC721InvalidOperator",
      "type": "error"
    },
    {
      "inputs": [
        {
          "internalType": "address",
          "name": "owner",
          "type": "address"
        }
      ],
      "name": "ERC721InvalidOwner",
      "type": "error"
    },
    {
      "inputs": [
        {
          "internalType": "address",
          "name": "receiver",
          "type": "address"
        }
      ],
      "name": "ERC721InvalidReceiver",
      "type": "error"
    },
    {
      "inputs": [
        {
          "internalType": "address",
          "name": "sender",
          "type": "address"
        }
      ],
      "name": "ERC721InvalidSender",
      "type": "error"
    },
    {
      "inputs": [
        {
          "internalType": "uint256",
          "name": "tokenId",
          "type": "uint256"
        }
      ],
      "name": "ERC721NonexistentToken",
      "type": "error"
    },
    {
      "inputs": [
        {
          "internalType": "address",
          "name": "owner",
          "type": "address"
        }
      ],
      "name": "OwnableInvalidOwner",
      "type": "error"
    },
    {
      "inputs": [
        {
          "internalType": "address",
          "name": "account",
          "type": "address"
        }
      ],
      "name": "OwnableUnauthorizedAccount",
      "type": "error"
    },
    {
      "anonymous": false,
      "inputs": [
        {
          "indexed": true,
          "internalType": "address",
          "name": "owner",
          "type": "address"
        },
        {
          "indexed": true,
          "internalType": "address",
          "name": "approved",
          "type": "address"
        },
        {
          "indexed": true,
          "internalType": "uint256",
          "name": "tokenId",
          "type": "uint256"
        }
      ],
      "name": "Approval",
      "type": "event"
    },
    {
      "anonymous": false,
      "inputs": [
        {
          "indexed": true,
          "internalType": "address",
          "name": "owner",
          "type": "address"
        },
        {
          "indexed": true,
          "internalType": "address",
          "name": "operator",
          "type": "address"
        },
        {
          "indexed": false,
          "internalType": "bool",
          "name": "approved",
          "type": "bool"
        }
      ],
      "name": "ApprovalForAll",
      "type": "event"
    },
    {
      "anonymous": false,
      "inputs": [
        {
          "indexed": false,
          "internalType": "uint256",
          "name": "_fromTokenId",
          "type": "uint256"
        },
        {
          "indexed": false,
          "internalType": "uint256",
          "name": "_toTokenId",
          "type": "uint256"
        }
      ],
      "name": "BatchMetadataUpdate",
      "type": "event"
    },
    {
      "anonymous": false,
      "inputs": [
        {
          "indexed": false,
          "internalType": "uint256",
          "name": "_tokenId",
          "type": "uint256"
        }
      ],
      "name": "MetadataUpdate",
      "type": "event"
    },
    {
      "anonymous": false,
      "inputs": [
        {
          "indexed": true,
          "internalType": "address",
          "name": "previousOwner",
          "type": "address"
        },
        {
          "indexed": true,
          "internalType": "address",
          "name": "newOwner",
          "type": "address"
        }
      ],
      "name": "OwnershipTransferred",
      "type": "event"
    },
    {
      "anonymous": false,
      "inputs": [
        {
          "indexed": true,
          "internalType": "address",
          "name": "from",
          "type": "address"
        },
        {
          "indexed": true,
          "internalType": "address",
          "name": "to",
          "type": "address"
        },
        {
          "indexed": true,
          "internalType": "uint256",
          "name": "tokenId",
          "type": "uint256"
        }
      ],
      "name": "Transfer",
      "type": "event"
    },
    {
      "inputs": [
        {
          "internalType": "address",
          "name": "to",
          "type": "address"
        },
        {
          "internalType": "uint256",
          "name": "tokenId",
          "type": "uint256"
        }
      ],
      "name": "approve",
      "outputs": [],
      "stateMutability": "nonpayable",
      "type": "function"
    },
    {
      "inputs": [
        {
          "internalType": "address",
          "name": "owner",
          "type": "address"
        }
      ],
      "name": "balanceOf",
      "outputs": [
        {
          "internalType": "uint256",
          "name": "",
          "type": "uint256"
        }
      ],
      "stateMutability": "view",
      "type": "function"
    },
    {
      "inputs": [
        {
          "internalType": "uint256",
          "name": "tokenId",
          "type": "uint256"
        }
      ],
      "name": "getApproved",
      "outputs": [
        {
          "internalType": "address",
          "name": "",
          "type": "address"
        }
      ],
      "stateMutability": "view",
      "type": "function"
    },
    {
      "inputs": [
        {
          "internalType": "address",
          "name": "owner",
          "type": "address"
        },
        {
          "internalType": "address",
          "name": "operator",
          "type": "address"
        }
      ],
      "name": "isApprovedForAll",
      "outputs": [
        {
          "internalType": "bool",
          "name": "",
          "type": "bool"
        }
      ],
      "stateMutability": "view",
      "type": "function"
    },
    {
      "inputs": [
        {
          "internalType": "string",
          "name": "tokenURI",
          "type": "string"
        }
      ],
      "name": "mintNFT",
      "outputs": [
        {
          "internalType": "uint256",
          "name": "",
          "type": "uint256"
        }
      ],
      "stateMutability": "nonpayable",
      "type": "function"
    },
    {
      "inputs": [],
      "name": "name",
      "outputs": [
        {
          "internalType": "string",
          "name": "",
          "type": "string"
        }
      ],
      "stateMutability": "view",
      "type": "function"
    },
    {
      "inputs": [],
      "name": "owner",
      "outputs": [
        {
          "internalType": "address",
          "name": "",
          "type": "address"
        }
      ],
      "stateMutability": "view",
      "type": "function"
    },
    {
      "inputs": [
        {
          "internalType": "uint256",
          "name": "tokenId",
          "type": "uint256"
        }
      ],
      "name": "ownerOf",
      "outputs": [
        {
          "internalType": "address",
          "name": "",
          "type": "address"
        }
      ],
      "stateMutability": "view",
      "type": "function"
    },
    {
      "inputs": [],
      "name": "renounceOwnership",
      "outputs": [],
      "stateMutability": "nonpayable",
      "type": "function"
    },
    {
      "inputs": [
        {
          "internalType": "address",
          "name": "from",
          "type": "address"
        },
        {
          "internalType": "address",
          "name": "to",
          "type": "address"
        },
        {
          "internalType": "uint256",
          "name": "tokenId",
          "type": "uint256"
        }
      ],
      "name": "safeTransferFrom",
      "outputs": [],
      "stateMutability": "nonpayable",
      "type": "function"
    },
    {
      "inputs": [
        {
          "internalType": "address",
          "name": "from",
          "type": "address"
        },
        {
          "internalType": "address",
          "name": "to",
          "type": "address"
        },
        {
          "internalType": "uint256",
          "name": "tokenId",
          "type": "uint256"
        },
        {
          "internalType": "bytes",
          "name": "data",
          "type": "bytes"
        }
      ],
      "name": "safeTransferFrom",
      "outputs": [],
      "stateMutability": "nonpayable",
      "type": "function"
    },
    {
      "inputs": [
        {
          "internalType": "address",
          "name": "operator",
          "type": "address"
        },
        {
          "internalType": "bool",
          "name": "approved",
          "type": "bool"
        }
      ],
      "name": "setApprovalForAll",
      "outputs": [],
      "stateMutability": "nonpayable",
      "type": "function"
    },
    {
      "inputs": [
        {
          "internalType": "bytes4",
          "name": "interfaceId",
          "type": "bytes4"
        }
      ],
      "name": "supportsInterface",
      "outputs": [
        {
          "internalType": "bool",
          "name": "",
          "type": "bool"
        }
      ],
      "stateMutability": "view",
      "type": "function"
    },
    {
      "inputs": [],
      "name": "symbol",
      "outputs": [
        {
          "internalType": "string",
          "name": "",
          "type": "string"
        }
      ],
      "stateMutability": "view",
      "type": "function"
    },
    {
      "inputs": [
        {
          "internalType": "uint256",
          "name": "tokenId",
          "type": "uint256"
        }
      ],
      "name": "tokenURI",
      "outputs": [
        {
          "internalType": "string",
          "name": "",
          "type": "string"
        }
      ],
      "stateMutability": "view",
      "type": "function"
    },
    {
      "inputs": [],
      "name": "totalSupply",
      "outputs": [
        {
          "internalType": "uint256",
          "name": "",
          "type": "uint256"
        }
      ],
      "stateMutability": "view",
      "type": "function"
    },
    {
      "inputs": [
        {
          "internalType": "address",
          "name": "from",
          "type": "address"
        },
        {
          "internalType": "address",
          "name": "to",
          "type": "address"
        },
        {
          "internalType": "uint256",
          "name": "tokenId",
          "type": "uint256"
        }
      ],
      "name": "transferFrom",
      "outputs": [],
      "stateMutability": "nonpayable",
      "type": "function"
    },
    {
      "inputs": [
        {
          "internalType": "address",
          "name": "newOwner",
          "type": "address"
        }
      ],
      "name": "transferOwnership",
      "outputs": [],
      "stateMutability": "nonpayable",
      "type": "function"
    }
  ],
  "bytecode": "0x608060405234801561001057600080fd5b50336040518060400160405280600581526020017f4d794e46540000000000000000000000000000000000000000000000000000008152506040518060400160405280600481526020017f4d4e465400000000000000000000000000000000000000000000000000000000815250816000908161008d919061043d565b50806001908161009d919061043d565b505050600073ffffffffffffffffffffffffffffffffffffffff168173ffffffffffffffffffffffffffffffffffffffff16036101125760006040517f1e4fbdf70000000000000000000000000000000000000000000000000000000081526004016101099190610550565b60405180910390fd5b6101218161012760201b60201c565b5061056b565b6000600760009054906101000a900473ffffffffffffffffffffffffffffffffffffffff16905081600760006101000a81548173ffffffffffffffffffffffffffffffffffffffff021916908373ffffffffffffffffffffffffffffffffffffffff1602179055508173ffffffffffffffffffffffffffffffffffffffff168173ffffffffffffffffffffffffffffffffffffffff167f8be0079c531659141344cd1fd0a4f28419497f9722a3daafe3b4186f6b6457e060405160405180910390a35050565b600081519050919050565b7f4e487b7100000000000000000000000000000000000000000000000000000000600052604160045260246000fd5b7f4e487b7100000000000000000000000000000000000000000000000000000000600052602260045260246000fd5b6000600282049050600182168061026e57607f821691505b60208210810361028157610280610227565b5b50919050565b60008190508160005260206000209050919050565b60006020601f8301049050919050565b600082821b905092915050565b6000600883026102e97fffffffffffffffffffffffffffffffffffffffffffffffffffffffffffffffff826102ac565b6102f386836102ac565b95508019841693508086168417925050509392505050565b6000819050919050565b6000819050919050565b600061033a6103356103308461030b565b610315565b61030b565b9050919050565b6000819050919050565b6103548361031f565b61036861036082610341565b8484546102b9565b825550505050565b600090565b61037d610370565b61038881848461034b565b505050565b5b818110156103ac576103a1600082610375565b60018101905061038e565b5050565b601f8211156103f1576103c281610287565b6103cb8461029c565b810160208510156103da578190505b6103ee6103e68561029c565b83018261038d565b50505b505050565b600082821c905092915050565b6000610414600019846008026103f6565b1980831691505092915050565b600061042d8383610403565b9150826002028217905092915050565b610446826101ed565b67ffffffffffffffff81111561045f5761045e6101f8565b5b6104698254610256565b6104748282856103b0565b600060209050601f8311600181146104a75760008415610495578287015190505b61049f8582610421565b865550610507565b601f1984166104b586610287565b60005b828110156104dd578489015182556001820191506020850194506020810190506104b8565b868310156104fa57848901516104f6601f891682610403565b8355505b6001600288020188555050505b505050505050565b600073ffffffffffffffffffffffffffffffffffffffff82169050919050565b600061053a8261050f565b9050919050565b61054a8161052f565b82525050565b60006020820190506105656000830184610541565b92915050565b6126538061057a6000396000f3fe608060405234801561001057600080fd5b50600436106101165760003560e01c8063715018a6116100a2578063b88d4fde11610071578063b88d4fde146102cd578063c87b56dd146102e9578063e985e9c514610319578063f2fde38b14610349578063fb37e8831461036557610116565b8063715018a61461026b5780638da5cb5b1461027557806395d89b4114610293578063a22cb465146102b157610116565b806318160ddd116100e957806318160ddd146101b557806323b872dd146101d357806342842e0e146101ef5780636352211e1461020b57806370a082311461023b57610116565b806301ffc9a71461011b57806306fdde031461014b578063081812fc14610169578063095ea7b314610199575b600080fd5b61013560048036038101906101309190611abe565b610395565b6040516101429190611b06565b60405180910390f35b6101536103f6565b6040516101609190611bb1565b60405180910390f35b610183600480360381019061017e9190611c09565b610488565b6040516101909190611c77565b60405180910390f35b6101b360048036038101906101ae9190611cbe565b6104a4565b005b6101bd6104ba565b6040516101ca9190611d0d565b60405180910390f35b6101ed60048036038101906101e89190611d28565b6104c4565b005b61020960048036038101906102049190611d28565b6105c6565b005b61022560048036038101906102209190611c09565b6105e6565b6040516102329190611c77565b60405180910390f35b61025560048036038101906102509190611d7b565b6105f8565b6040516102629190611d0d565b60405180910390f35b6102736106b2565b005b61027d6106c6565b60405161028a9190611c77565b60405180910390f35b61029b6106f0565b6040516102a89190611bb1565b60405180910390f35b6102cb60048036038101906102c69190611dd4565b610782565b005b6102e760048036038101906102e29190611f49565b610798565b005b61030360048036038101906102fe9190611c09565b6107bd565b6040516103109190611bb1565b60405180910390f35b610333600480360381019061032e9190611fcc565b6108d0565b6040516103409190611b06565b60405180910390f35b610363600480360381019061035e9190611d7b565b610964565b005b61037f600480360381019061037a91906120ad565b6109ea565b60405161038c9190611d0d565b60405180910390f35b6000634906490660e01b7bffffffffffffffffffffffffffffffffffffffffffffffffffffffff1916827bffffffffffffffffffffffffffffffffffffffffffffffffffffffff191614806103ef57506103ee82610a23565b5b9050919050565b60606000805461040590612125565b80601f016020809104026020016040519081016040528092919081815260200182805461043190612125565b801561047e5780601f106104535761010080835404028352916020019161047e565b820191906000526020600020905b81548152906001019060200180831161046157829003601f168201915b5050505050905090565b600061049382610b05565b5061049d82610b8d565b9050919050565b6104b682826104b1610bca565b610bd2565b5050565b6000600854905090565b600073ffffffffffffffffffffffffffffffffffffffff168273ffffffffffffffffffffffffffffffffffffffff16036105365760006040517f64a0ae9200000000000000000000000000000000000000000000000000000000815260040161052d9190611c77565b60405180910390fd5b600061054a8383610545610bca565b610be4565b90508373ffffffffffffffffffffffffffffffffffffffff168173ffffffffffffffffffffffffffffffffffffffff16146105c0578382826040517f64283d7b0000000000000000000000000000000000000000000000000000000081526004016105b793929190612156565b60405180910390fd5b50505050565b6105e183838360405180602001604052806000815250610798565b505050565b60006105f182610b05565b9050919050565b60008073ffffffffffffffffffffffffffffffffffffffff168273ffffffffffffffffffffffffffffffffffffffff160361066b5760006040517f89c62b640000000000000000000000000000000000000000000000000000000081526004016106629190611c77565b60405180910390fd5b600360008373ffffffffffffffffffffffffffffffffffffffff1673ffffffffffffffffffffffffffffffffffffffff168152602001908152602001600020549050919050565b6106ba610dfe565b6106c46000610e85565b565b6000600760009054906101000a900473ffffffffffffffffffffffffffffffffffffffff16905090565b6060600180546106ff90612125565b80601f016020809104026020016040519081016040528092919081815260200182805461072b90612125565b80156107785780601f1061074d57610100808354040283529160200191610778565b820191906000526020600020905b81548152906001019060200180831161075b57829003601f168201915b5050505050905090565b61079461078d610bca565b8383610f4b565b5050565b6107a38484846104c4565b6107b76107ae610bca565b858585856110ba565b50505050565b60606107c882610b05565b5060006006600084815260200190815260200160002080546107e990612125565b80601f016020809104026020016040519081016040528092919081815260200182805461081590612125565b80156108625780601f1061083757610100808354040283529160200191610862565b820191906000526020600020905b81548152906001019060200180831161084557829003601f168201915b50505050509050600061087361126b565b905060008151036108885781925050506108cb565b6000825111156108bd5780826040516020016108a59291906121c9565b604051602081830303815290604052925050506108cb565b6108c684611282565b925050505b919050565b6000600560008473ffffffffffffffffffffffffffffffffffffffff1673ffffffffffffffffffffffffffffffffffffffff16815260200190815260200160002060008373ffffffffffffffffffffffffffffffffffffffff1673ffffffffffffffffffffffffffffffffffffffff16815260200190815260200160002060009054906101000a900460ff16905092915050565b61096c610dfe565b600073ffffffffffffffffffffffffffffffffffffffff168173ffffffffffffffffffffffffffffffffffffffff16036109de5760006040517f1e4fbdf70000000000000000000000000000000000000000000000000000000081526004016109d59190611c77565b60405180910390fd5b6109e781610e85565b50565b60008060086000815480929190610a009061221c565b919050559050610a1033826112eb565b610a1a81846113e4565b80915050919050565b60007f80ac58cd000000000000000000000000000000000000000000000000000000007bffffffffffffffffffffffffffffffffffffffffffffffffffffffff1916827bffffffffffffffffffffffffffffffffffffffffffffffffffffffff19161480610aee57507f5b5e139f000000000000000000000000000000000000000000000000000000007bffffffffffffffffffffffffffffffffffffffffffffffffffffffff1916827bffffffffffffffffffffffffffffffffffffffffffffffffffffffff1916145b80610afe5750610afd82611440565b5b9050919050565b600080610b11836114aa565b9050600073ffffffffffffffffffffffffffffffffffffffff168173ffffffffffffffffffffffffffffffffffffffff1603610b8457826040517f7e273289000000000000000000000000000000000000000000000000000000008152600401610b7b9190611d0d565b60405180910390fd5b80915050919050565b60006004600083815260200190815260200160002060009054906101000a900473ffffffffffffffffffffffffffffffffffffffff169050919050565b600033905090565b610bdf83838360016114e7565b505050565b600080610bf0846114aa565b9050600073ffffffffffffffffffffffffffffffffffffffff168373ffffffffffffffffffffffffffffffffffffffff1614610c3257610c318184866116ac565b5b600073ffffffffffffffffffffffffffffffffffffffff168173ffffffffffffffffffffffffffffffffffffffff1614610cc357610c746000856000806114e7565b6001600360008373ffffffffffffffffffffffffffffffffffffffff1673ffffffffffffffffffffffffffffffffffffffff168152602001908152602001600020600082825403925050819055505b600073ffffffffffffffffffffffffffffffffffffffff168573ffffffffffffffffffffffffffffffffffffffff1614610d46576001600360008773ffffffffffffffffffffffffffffffffffffffff1673ffffffffffffffffffffffffffffffffffffffff168152602001908152602001600020600082825401925050819055505b846002600086815260200190815260200160002060006101000a81548173ffffffffffffffffffffffffffffffffffffffff021916908373ffffffffffffffffffffffffffffffffffffffff160217905550838573ffffffffffffffffffffffffffffffffffffffff168273ffffffffffffffffffffffffffffffffffffffff167fddf252ad1be2c89b69c2b068fc378daa952ba7f163c4a11628f55a4df523b3ef60405160405180910390a4809150509392505050565b610e06610bca565b73ffffffffffffffffffffffffffffffffffffffff16610e246106c6565b73ffffffffffffffffffffffffffffffffffffffff1614610e8357610e47610bca565b6040517f118cdaa7000000000000000000000000000000000000000000000000000000008152600401610e7a9190611c77565b60405180910390fd5b565b6000600760009054906101000a900473ffffffffffffffffffffffffffffffffffffffff16905081600760006101000a81548173ffffffffffffffffffffffffffffffffffffffff021916908373ffffffffffffffffffffffffffffffffffffffff1602179055508173ffffffffffffffffffffffffffffffffffffffff168173ffffffffffffffffffffffffffffffffffffffff167f8be0079c531659141344cd1fd0a4f28419497f9722a3daafe3b4186f6b6457e060405160405180910390a35050565b600073ffffffffffffffffffffffffffffffffffffffff168273ffffffffffffffffffffffffffffffffffffffff1603610fbc57816040517f5b08ba18000000000000000000000000000000000000000000000000000000008152600401610fb39190611c77565b60405180910390fd5b80600560008573ffffffffffffffffffffffffffffffffffffffff1673ffffffffffffffffffffffffffffffffffffffff16815260200190815260200160002060008473ffffffffffffffffffffffffffffffffffffffff1673ffffffffffffffffffffffffffffffffffffffff16815260200190815260200160002060006101000a81548160ff0219169083151502179055508173ffffffffffffffffffffffffffffffffffffffff168373ffffffffffffffffffffffffffffffffffffffff167f17307eab39ab6107e8899845ad3d59bd9653f200f220920489ca2b5937696c31836040516110ad9190611b06565b60405180910390a3505050565b60008373ffffffffffffffffffffffffffffffffffffffff163b1115611264578273ffffffffffffffffffffffffffffffffffffffff1663150b7a02868685856040518563ffffffff1660e01b815260040161111994939291906122b9565b6020604051808303816000875af192505050801561115557506040513d601f19601f82011682018060405250810190611152919061231a565b60015b6111d9573d8060008114611185576040519150601f19603f3d011682016040523d82523d6000602084013e61118a565b606091505b5060008151036111d157836040517f64a0ae920000000000000000000000000000000000000000000000000000000081526004016111c89190611c77565b60405180910390fd5b805160208201fd5b63150b7a0260e01b7bffffffffffffffffffffffffffffffffffffffffffffffffffffffff1916817bffffffffffffffffffffffffffffffffffffffffffffffffffffffff19161461126257836040517f64a0ae920000000000000000000000000000000000000000000000000000000081526004016112599190611c77565b60405180910390fd5b505b5050505050565b606060405180602001604052806000815250905090565b606061128d82610b05565b50600061129861126b565b905060008151116112b857604051806020016040528060008152506112e3565b806112c284611770565b6040516020016112d39291906121c9565b6040516020818303038152906040525b915050919050565b600073ffffffffffffffffffffffffffffffffffffffff168273ffffffffffffffffffffffffffffffffffffffff160361135d5760006040517f64a0ae920000000000000000000000000000000000000000000000000000000081526004016113549190611c77565b60405180910390fd5b600061136b83836000610be4565b9050600073ffffffffffffffffffffffffffffffffffffffff168173ffffffffffffffffffffffffffffffffffffffff16146113df5760006040517f73c6ac6e0000000000000000000000000000000000000000000000000000000081526004016113d69190611c77565b60405180910390fd5b505050565b8060066000848152602001908152602001600020908161140491906124f3565b507ff8e1a15aba9398e019f0b49df1a4fde98ee17ae345cb5f6b5e2c27f5033e8ce7826040516114349190611d0d565b60405180910390a15050565b60007f01ffc9a7000000000000000000000000000000000000000000000000000000007bffffffffffffffffffffffffffffffffffffffffffffffffffffffff1916827bffffffffffffffffffffffffffffffffffffffffffffffffffffffff1916149050919050565b60006002600083815260200190815260200160002060009054906101000a900473ffffffffffffffffffffffffffffffffffffffff169050919050565b80806115205750600073ffffffffffffffffffffffffffffffffffffffff168273ffffffffffffffffffffffffffffffffffffffff1614155b1561165457600061153084610b05565b9050600073ffffffffffffffffffffffffffffffffffffffff168373ffffffffffffffffffffffffffffffffffffffff161415801561159b57508273ffffffffffffffffffffffffffffffffffffffff168173ffffffffffffffffffffffffffffffffffffffff1614155b80156115ae57506115ac81846108d0565b155b156115f057826040517fa9fbf51f0000000000000000000000000000000000000000000000000000000081526004016115e79190611c77565b60405180910390fd5b811561165257838573ffffffffffffffffffffffffffffffffffffffff168273ffffffffffffffffffffffffffffffffffffffff167f8c5be1e5ebec7d5bd14f71427d1e84f3dd0314c0f7b2291e5b200ac8c7c3b92560405160405180910390a45b505b836004600085815260200190815260200160002060006101000a81548173ffffffffffffffffffffffffffffffffffffffff021916908373ffffffffffffffffffffffffffffffffffffffff16021790555050505050565b6116b783838361183e565b61176b57600073ffffffffffffffffffffffffffffffffffffffff168373ffffffffffffffffffffffffffffffffffffffff160361172c57806040517f7e2732890000000000000000000000000000000000000000000000000000000081526004016117239190611d0d565b60405180910390fd5b81816040517f177e802f0000000000000000000000000000000000000000000000000000000081526004016117629291906125c5565b60405180910390fd5b505050565b60606000600161177f846118ff565b01905060008167ffffffffffffffff81111561179e5761179d611e1e565b5b6040519080825280601f01601f1916602001820160405280156117d05781602001600182028036833780820191505090505b509050600082602083010190505b600115611833578080600190039150507f3031323334353637383961626364656600000000000000000000000000000000600a86061a8153600a8581611827576118266125ee565b5b049450600085036117de575b819350505050919050565b60008073ffffffffffffffffffffffffffffffffffffffff168373ffffffffffffffffffffffffffffffffffffffff16141580156118f657508273ffffffffffffffffffffffffffffffffffffffff168473ffffffffffffffffffffffffffffffffffffffff1614806118b757506118b684846108d0565b5b806118f557508273ffffffffffffffffffffffffffffffffffffffff166118dd83610b8d565b73ffffffffffffffffffffffffffffffffffffffff16145b5b90509392505050565b600080600090507a184f03e93ff9f4daa797ed6e38ed64bf6a1f010000000000000000831061195d577a184f03e93ff9f4daa797ed6e38ed64bf6a1f0100000000000000008381611953576119526125ee565b5b0492506040810190505b6d04ee2d6d415b85acef8100000000831061199a576d04ee2d6d415b85acef810000000083816119905761198f6125ee565b5b0492506020810190505b662386f26fc1000083106119c957662386f26fc1000083816119bf576119be6125ee565b5b0492506010810190505b6305f5e10083106119f2576305f5e10083816119e8576119e76125ee565b5b0492506008810190505b6127108310611a17576127108381611a0d57611a0c6125ee565b5b0492506004810190505b60648310611a3a5760648381611a3057611a2f6125ee565b5b0492506002810190505b600a8310611a49576001810190505b80915050919050565b6000604051905090565b600080fd5b600080fd5b60007fffffffff0000000000000000000000000000000000000000000000000000000082169050919050565b611a9b81611a66565b8114611aa657600080fd5b50565b600081359050611ab881611a92565b92915050565b600060208284031215611ad457611ad3611a5c565b5b6000611ae284828501611aa9565b91505092915050565b60008115159050919050565b611b0081611aeb565b82525050565b6000602082019050611b1b6000830184611af7565b92915050565b600081519050919050565b600082825260208201905092915050565b60005b83811015611b5b578082015181840152602081019050611b40565b60008484015250505050565b6000601f19601f8301169050919050565b6000611b8382611b21565b611b8d8185611b2c565b9350611b9d818560208601611b3d565b611ba681611b67565b840191505092915050565b60006020820190508181036000830152611bcb8184611b78565b905092915050565b6000819050919050565b611be681611bd3565b8114611bf157600080fd5b50565b600081359050611c0381611bdd565b92915050565b600060208284031215611c1f57611c1e611a5c565b5b6000611c2d84828501611bf4565b91505092915050565b600073ffffffffffffffffffffffffffffffffffffffff82169050919050565b6000611c6182611c36565b9050919050565b611c7181611c56565b82525050565b6000602082019050611c8c6000830184611c68565b92915050565b611c9b81611c56565b8114611ca657600080fd5b50565b600081359050611cb881611c92565b92915050565b60008060408385031215611cd557611cd4611a5c565b5b6000611ce385828601611ca9565b9250506020611cf485828601611bf4565b9150509250929050565b611d0781611bd3565b82525050565b6000602082019050611d226000830184611cfe565b92915050565b600080600060608486031215611d4157611d40611a5c565b5b6000611d4f86828701611ca9565b9350506020611d6086828701611ca9565b9250506040611d7186828701611bf4565b9150509250925092565b600060208284031215611d9157611d90611a5c565b5b6000611d9f84828501611ca9565b91505092915050565b611db181611aeb565b8114611dbc57600080fd5b50565b600081359050611dce81611da8565b92915050565b60008060408385031215611deb57611dea611a5c565b5b6000611df985828601611ca9565b9250506020611e0a85828601611dbf565b9150509250929050565b600080fd5b600080fd5b7f4e487b7100000000000000000000000000000000000000000000000000000000600052604160045260246000fd5b611e5682611b67565b810181811067ffffffffffffffff82111715611e7557611e74611e1e565b5b80604052505050565b6000611e88611a52565b9050611e948282611e4d565b919050565b600067ffffffffffffffff821115611eb457611eb3611e1e565b5b611ebd82611b67565b9050602081019050919050565b82818337600083830152505050565b6000611eec611ee784611e99565b611e7e565b905082815260208101848484011115611f0857611f07611e19565b5b611f13848285611eca565b509392505050565b600082601f830112611f3057611f2f611e14565b5b8135611f40848260208601611ed9565b91505092915050565b60008060008060808587031215611f6357611f62611a5c565b5b6000611f7187828801611ca9565b9450506020611f8287828801611ca9565b9350506040611f9387828801611bf4565b925050606085013567ffffffffffffffff811115611fb457611fb3611a61565b5b611fc087828801611f1b565b91505092959194509250565b60008060408385031215611fe357611fe2611a5c565b5b6000611ff185828601611ca9565b925050602061200285828601611ca9565b9150509250929050565b600067ffffffffffffffff82111561202757612026611e1e565b5b61203082611b67565b9050602081019050919050565b600061205061204b8461200c565b611e7e565b90508281526020810184848401111561206c5761206b611e19565b5b612077848285611eca565b509392505050565b600082601f83011261209457612093611e14565b5b81356120a484826020860161203d565b91505092915050565b6000602082840312156120c3576120c2611a5c565b5b600082013567ffffffffffffffff8111156120e1576120e0611a61565b5b6120ed8482850161207f565b91505092915050565b7f4e487b7100000000000000000000000000000000000000000000000000000000600052602260045260246000fd5b6000600282049050600182168061213d57607f821691505b6020821081036121505761214f6120f6565b5b50919050565b600060608201905061216b6000830186611c68565b6121786020830185611cfe565b6121856040830184611c68565b949350505050565b600081905092915050565b60006121a382611b21565b6121ad818561218d565b93506121bd818560208601611b3d565b80840191505092915050565b60006121d58285612198565b91506121e18284612198565b91508190509392505050565b7f4e487b7100000000000000000000000000000000000000000000000000000000600052601160045260246000fd5b600061222782611bd3565b91507fffffffffffffffffffffffffffffffffffffffffffffffffffffffffffffffff8203612259576122586121ed565b5b600182019050919050565b600081519050919050565b600082825260208201905092915050565b600061228b82612264565b612295818561226f565b93506122a5818560208601611b3d565b6122ae81611b67565b840191505092915050565b60006080820190506122ce6000830187611c68565b6122db6020830186611c68565b6122e86040830185611cfe565b81810360608301526122fa8184612280565b905095945050505050565b60008151905061231481611a92565b92915050565b6000602082840312156123305761232f611a5c565b5b600061233e84828501612305565b91505092915050565b60008190508160005260206000209050919050565b60006020601f8301049050919050565b600082821b905092915050565b6000600883026123a97fffffffffffffffffffffffffffffffffffffffffffffffffffffffffffffffff8261236c565b6123b3868361236c565b95508019841693508086168417925050509392505050565b6000819050919050565b60006123f06123eb6123e684611bd3565b6123cb565b611bd3565b9050919050565b6000819050919050565b61240a836123d5565b61241e612416826123f7565b848454612379565b825550505050565b600090565b612433612426565b61243e818484612401565b505050565b5b818110156124625761245760008261242b565b600181019050612444565b5050565b601f8211156124a75761247881612347565b6124818461235c565b81016020851015612490578190505b6124a461249c8561235c565b830182612443565b50505b505050565b600082821c905092915050565b60006124ca600019846008026124ac565b1980831691505092915050565b60006124e383836124b9565b9150826002028217905092915050565b6124fc82611b21565b67ffffffffffffffff81111561251557612514611e1e565b5b61251f8254612125565b61252a828285612466565b600060209050601f83116001811461255d576000841561254b578287015190505b61255585826124d7565b8655506125bd565b601f19841661256b86612347565b60005b828110156125935784890151825560018201915060208501945060208101905061256e565b868310156125b057848901516125ac601f8916826124b9565b8355505b6001600288020188555050505b505050505050565b60006040820190506125da6000830185611c68565b6125e76020830184611cfe565b9392505050565b7f4e487b7100000000000000000000000000000000000000000000000000000000600052601260045260246000fdfea26469706673582212208dc7421598dff4ba70bd7bd49fe4707d20ba6d65b61919ba0d0e79374bdc896064736f6c634300081c0033",
  "linkReferences": {},
  "deployedLinkReferences": {}
}